:020000040000FA
:06000000C2EF00F0120047
:06002A000100C00100000E
:080030008A0000000A00000034
:080038002A0EF66E000EF76EB1
:10004000000EF86E00010900F550856F0900F550AB
:10005000866F03E1856701D03DD00900F550806FC0
:100060000900F550816F0900F550826F0900090001
:10007000F550E96E0900F550EA6E09000900090023
:10008000F550836F0900F550846F09000900F6CF21
:1000900087F0F7CF88F0F8CF89F080C0F6FF81C0F5
:1000A000F7FF82C0F8FF0001835302E1845307E0A9
:1000B0000900F550EE6E8307F8E28407F9D787C090
:1000C000F6FF88C0F7FF89C0F8FF00018507000E22
:0600D000865BBFD71200A1
:0A00D600D9CFE6FFE1CFD9FFE652D3
:1000E000DF6AD0EC00F080A007D0A5EC00F0DF2A9A
:1000F0000A0EDF5C01E1DF6A80A208D0A5EC00F007
:10010000DF06DFCF04F0043401E3DF6ADFCFE6FF70
:1001100091EC00F0E552E7D7E552E552E7CFD9FF81
:020120001200CB
:0E012200D9CFE6FFE1CFD9FFFE0EDBCFE9FF1C
:10013000EA6AE9BEEA688A0EE926000EEA22EF5072
:100140008C6EE552E7CFD9FF1200640EE66EABEC81
:0601500000F0E552120070
:0A015600FF0EE350036EEF0E01D020
:10016000F30EE76EE72EB2EF00F00C0E026EE76AB8
:10017000E72EB8EF00F0022EB7EF00F0032EB0EF3D
:0401800000F0120079
:0C01840015EE00F025EE00F0F86A019C7A
:100190001CEC00F0DFEC00F06BEC00F0FBD7120081
:1001A00094988B8892809282C168956A8C681200BC
:0E01B00000EE00F00F0EEE6AEA62FDD71200BC
:0201BE0012002D
:0A01C000C0F9A4B0999282F8809073
:020000040030CA
:0100010002FC
:010003001EDE
:010006008178
:00000001FF
